:020000040800F2
:10000000204900205D0200087F1C0008B51A000886
:100010007D1C0008E1040008ED230008000000003A
:100020000000000000000000000000009D0100082A
:10003000B905000800000000F9010008891C00084B
:1000400077020008770200087702000877020008AC
:10005000770200087702000877020008770200089C
:10006000770200087702000877020008770200088C
:10007000E504000877020008F10400087702000890
:10008000FD0400080905000877020008770200084F
:10009000770200087702000877020008770200085C
:1000A00077020008551D0008770200087702000853
:1000B000770200087702000877020008770200083C
:1000C000770200087702000877020008770200082C
:1000D00077020008770200084D220008F12200088C
:1000E000770200087702000877020008770200080C
:1000F00077020008770200087702000877020008FC
:1001000077020008770200087702000877020008EB
:1001100077020008770200087702000877020008DB
:1001200077020008770200087702000877020008CB
:1001300077020008000000000000000077020008BD
:1001400077020008770200087702000877020008AB
:10015000770200087702000877020008770200089B
:10016000770200087702000877020008770200088B
:10017000770200087702000800000000000000007D
:100180007702000877020008DFF80CD000F0ECF8E6
:100190000048004735270008204900202C4B1968EB
:1001A0000868B0E8F04F80F30988BFF36F8F4FF015
:1001B000000080F3118870470000000008480068C4
:1001C000006880F308884FF0000080F3148862B65E
:1001D00061B6BFF34F8FBFF36F8F00DF00BF00BF6B
:1001E00008ED00E0DFF80C00016841F470010160E7
:1001F000704700BF88ED00E0EFF30980BFF36F8F19
:10020000134B1A681EF0100F08BF20ED108A20E96A
:10021000F04F106009B44FF0500080F31188BFF325
:100220004F8FBFF36F8F03F047F84FF0000080F35C
:10023000118809BC19680868B0E8F04F1EF0100F6B
:1002400008BFB0EC108A80F30988BFF36F8F704746
:10025000F0000020EFF3058070470000064880475B
:1002600006480047FEE7FEE7FEE7FEE7FEE7FEE79B
:10027000FEE7FEE7FEE7FEE7391D000889010008FA
:100280002DE9F05F0546002092469B4688460646CB
:10029000814640241BE0284641464746224600F05E
:1002A00053F853465A46C01A914110D31146184686
:1002B000224600F03AF82D1A67EB01084F46224615
:1002C0000120002100F031F817EB00094E41201EFB
:1002D000A4F10104DFDC484631462A464346BDE826
:1002E000F09F40EA01039B0703D009E008C9121FF1
:1002F00008C0042AFAD203E011F8013B00F8013BE0
:10030000521EF9D27047D2B201E000F8012B491E0B
:10031000FBD270470022F6E710B513460A460446A2
:100320001946FFF7F0FF204610BD202A04DB203AD3
:1003300000FA02F1002070479140C2F1200320FA38
:1003400003F3194390407047202A04DB203A21FA36
:1003500002F00021704721FA02F3D040C2F12002DE
:100360009140084319467047064C074D06E0E06887
:1003700040F0010394E8070098471034AC42F6D3EC
:10038000FFF706FF583D0008783D000870B58C184F
:1003900010F8015B15F0070301D110F8013B2A1199
:1003A00006D110F8012B03E010F8016B01F8016B86
:1003B0005B1EF9D12B0705D40023521E0DD401F882
:1003C000013BFAE710F8013BCB1A921C03E013F84B
:1003D000015B01F8015B521EF9D5A142D8D3002080
:1003E00070BD000008480168CA6842F04002CA6057
:1003F0000068C16841F01001C1604FF48072034988
:10040000014801F0C3B90000EC050020AC04002055
:100410000A4630B40F49104C0B684FF40011A34248
:1004200002D90D4B4C3B04E00C4CA34203D90A4BC0
:10043000503B196008E0094D084C603DB83CAB42A8
:1004400001D9E16000E0A1600146024830BCE0381B
:1004500001F048BACC06002058640240B86002405F
:1004600008480168CA6842F04002CA600068C16872
:1004700041F01001C1604FF480720349014801F05E
:1004800085B900002C060020AA0300200A4630B4DB
:100490000F49104C0B684FF00061A34202D90D4B7D
:1004A0004C3B04E00C4CA34203D90A4B503B19606F
:1004B00008E0094D084C603DB83CAB4201D9E16011
:1004C00000E0A160014630BC044801F00BBA000016
:1004D0008C07002058640240B86002402C060020BF
:1004E000FEE70000014800F0C3B800002C07002020
:1004F000014800F0BDB800008C070020014800F062
:10050000B7B800006C060020014800F0B1B8000048
:10051000CC06002001681823CAB2103AB2FBF3F2ED
:10052000054B6FF30901032A9B5CC36500D9091DC4
:1005300081650846704700000C3D000810B5014673
:1005400000208B698A6A4FF0C07453B1B3F5005F25
:1005500015D072B1012A0CD0022A0AD0032A09D17F
:1005600004E01AB1012A06D0022A03D1C96AC901DE
:1005700000D5012010BDC96AA142FAD010BD002AE1
:10058000F7D0012AF2D0022AF3D0032AF3D010BD0B
:1005900030B50468256825F480252560046863600B
:1005A0008368402B036803D099600068C26030BD47
:1005B0009A600068C16030BD704770472DE9F04116
:1005C0000446876D00F0A2FA064694F8350000252F
:1005D000022806D08020606584F834500120BDE8F0
:1005E000F0812068016821F01601016020684169EE
:1005F00021F080014161206C08B9A06C20B1206815
:10060000016821F0080101602068016821F0010102
:1006100001600BE000F07AFA801B052806D9202043
:10062000606504F8345F03206070D8E720680068D4
:10063000C007EFD194F85C103F208840B86004F800
:10064000345F012060700020C9E790F8351002295E
:1006500003D08021416501207047052180F83510C5
:100660000068016821F0010101600020704700006E
:100670002DE9F84304464FF00009CDF80090634897
:100680004FF41651A56D0068B0FBF1F72E6894F891
:100690005C10082000FA01F131420FD021680A688D
:1006A00052070BD50A6822F004020A6094F85C1025
:1006B0008840A860606D40F00100606594F85C10AF
:1006C0004FF0010808FA01F0304208D0216849696A
:1006D000090604D5A860606D40F00200606594F8DA
:1006E0005C1004208840304208D0216809688907DE
:1006F00004D5A860606D40F00400606594F85C105B
:1007000010208840304218D021680968090714D5A4
:10071000A86020680168490304D50068000308D573
:10072000A16C07E00168C90503D4016821F0080144
:100730000160216C09B12046884794F85C102020A4
:100740008840304231D021680968C9062DD5A8609B
:1007500094F8350005282068016806D0490347D57C
:10076000006800031DD4616C1CE021F016010160DB
:100770002068416921F080014161206C08B9A06CBA
:1007800020B12068016821F00801016094F85C1034
:100790003F208840A86084F8349084F83580216D2B
:1007A0001FE0E16B09B120468847606D00282BD01F
:1007B000606DC00714D0052084F8350020680168FA
:1007C00021F0010101600098401C0090B84203D85C
:1007D00020680068C007F6D184F8349084F835802A
:1007E000E16C002910D001B02046BDE8F043084775
:1007F0000168C905D5D4016821F01001016084F8B1
:10080000349084F83580CCE7BDE8F883EC00002014
:100810002DE9F041044600F079F906465CB1002567
:1008200084F83450022084F835002068016821F0F3
:10083000010101600DE00120BDE8F08100F066F9E2
:10084000801B052805D920206065032084F8350029
:10085000F2E720680068C007F0D1226811682048DC
:100860000140D4E901031843D4E903363343184364
:1008700063691843A3691843E3691843236A18435B
:100880000843616A042903D1D4E90B1319430843CF
:10089000106020684069666A20F0070130460E4308
:1008A000012704280CD1A06A0643E06A40B1204623
:1008B000FFF744FE20B14020606584F83570BAE748
:1008C000206846612046FFF725FE94F85C203F2112
:1008D00091408160656584F835700020ACE70000C8
:1008E0003F8010F02DE9F0410446866D90F8340009
:1008F000002501280DD0012084F8340094F83570CB
:100900000020012F07D084F8340002252846BDE8D6
:10091000F0810220FBE7022784F8357060652046ED
:10092000FFF736FE94F85C103F208840B0602068E6
:10093000016841F016010160206C20B12068016857
:1009400041F0080101602068016841F00101016087
:10095000DCE700002DE9F84F00224FF001080325E5
:100960004FF00F0E0B6808FA02F42340A3426ED139
:100970004E68012E05D0022E03D0112E01D0122E6A
:1009800012D186684FEA420C05FA0CF7BE43CF68D5
:1009900007FA0CF7374387604668A6430C79C4F31F
:1009A0000014944034434460C668570005FA07FCBD
:1009B0008C6826EA0C06BC403443C4604C68022CA8
:1009C00001D0122C13D1D40800EB8404A346D4F830
:1009D000209054074FEAD46A0EFA0AF629EA06096B
:1009E0000E6906FA0AF646EA0906CBF820600668A0
:1009F0000C7926EA0C0604F00304BC40344304607E
:100A00004C68E40065D5364C266846F4804626607E
:100A1000246822F0030604F480440094314C3444EA
:100A2000A446D4F808489607370F0EFA07F6B443E1
:100A30002D4EB04201D1002624E02C4EB04201D10F
:100A400001261FE02A4EB04202D102261AE040E001
:100A5000284EB04201D1032614E0274EB04201D106
:100A600004260FE0254EB04201D105260AE0244EAF
:100A7000B04201D1062605E0224EB04201D1072640
:100A800000E00826BE402643CCF808681E4E3468B5
:100A90004F689C43FF0300D51C4334601A4C241D4F
:100AA00026684F689E43BF0300D51E432660164E3E
:100AB000083634684F689C43FF0200D51C433460FD
:100AC000114E0C3634684F689C43BF0200D51C435E
:100AD0003460521C102AFFF445AFBDE8F88F0000C7
:100AE000443802400030014000000240000402404F
:100AF00000080240000C02400010024000140240B6
:100B000000180240001C0240003C0140014880687F
:100B100070470000E000002002488168027811441C
:100B200081607047E00000200B4810B5016841F477
:100B300000710160016841F480610160016841F465
:100B400080710160032000F089F8002000F006F8B1
:100B500000F03EF8002010BD003C024010B50146F8
:100B600088B00022192000F059F8192000F048F848
:100B700013480024016841F001010160006805A9E3
:100B800000F001000690684600F014F900F042F908
:100B90000C494000B0FBF1F10C480B4A491E0260C1
:100BA00040F2E732C0E90324C0E9011400F022FB5F
:100BB00010B1012008B010BD044800F037FBF9E780
:100BC0004438024040420F0000000140EC07002082
:100BD0000A4808B5016841F480410160006800F4EA
:100BE000804000900548001F016841F0805101607D
:100BF000006800F08050009008BD000044380240BA
:100C0000002809DB00F01F0201219140400980000B
:100C100000F1E020C0F8001170470000F0B40E4B66
:100C20001B680C46C3F30223C3F10705042D00D94A
:100C30000425191D072901D2002300E0DB1E01262F
:100C400006FA05F1491E214099409E40761E164045
:100C50003143F0BC01F0DCBB0CED00E0064900F0D4
:100C6000070208684FF6FF03184040EA0220034AD3
:100C700010430860704700000CED00E00000FA052A
:100C80002DE9F0470E46050065D0DFF81481D8F84D
:100C90000000F7B200F00F00B04207D288F80070F1
:100CA000D8F8000000F00F00B04254D128683D4C45
:100CB000810712D5400703D5206840F4E05020603A
:100CC0002878000703D5206840F460402060206841
:100CD000A96820F0F000084320602878C0072DD0D4
:100CE000304968680839012812D0022813D0032837
:100CF00011D00968890700292DDA216821F0030144
:100D000001432160FFF702FF814641F2883A0EE07D
:100D100009688903EFE709688901ECE7FFF7F6FE48
:100D2000A0EB0901514502D90320BDE8F0872068F6
:100D3000696800F00C00B0EB810FEFD1D8F800101B
:100D4000404601F00F01B14207D90770006800F07A
:100D50000F00B04201D00120E7E72878400705D511
:100D60002068E96820F4E0500843206028780007F4
:100D700006D52068296920F4604040EAC10020605F
:100D800000F058F82168084AC1F30311515CC840CB
:100D90000649086006480068FFF7E0FE0020C4E747
:100DA000003C024008380240143D0008EC000020DE
:100DB000E40000200F2202600C4A136803F00303D2
:100DC0004360136803F0F0038360136803F4E05397
:100DD000C36012684FF4E05303EAD2020261044890
:100DE000006800F00F0008607047000008380240FB
:100DF000003C02400448054900680968044AC1F300
:100E00008221515CC8407047EC0000200838024045
:100E1000243D00080448054900680968044AC1F3F4
:100E20004231515CC8407047EC0000200838024055
:100E3000243D0008154810B5006810F00C02144855
:100E400013D04110042A0FD0082A0ED10F4C241FB2
:100E50002268236802F03F025B0207D52068C0F3D6
:100E60008810A0FB010106E0084610BD2168C1F30F
:100E70008811A1FB00010023FFF702FA2168C1F3EA
:100E80000141491C4900B0FBF1F010BD0838024097
:100E90000024F4002DE9F84F04006ED02078DFF82C
:100EA0003C93C007A9F104054AD009F10400016888
:100EB000C1F38101012908D00068C0F38100022834
:100EC0000AD1D9F80000400206D52868800337D53A
:100ED00060680028E1D033E06068B0F5803F10D052
:100EE000B0F5A02F286810D020F480302860286842
:100EF00020F4802028606068A8B1FFF707FE06464E
:100F00000DE0286840F48030F4E740F48020286049
:100F1000F7E700BFFFF7FAFD801B642873D8286845
:100F20008003F7D50CE0FFF7F1FD064605E000BFB2
:100F3000FFF7ECFD801B6428F0D828688003F7D405
:100F40002078DFF89C8280074FF0000A3ED5A34846
:100F5000001D016811F00C0F08D00068C0F381007B
:100F600002280BD1D9F80000400207D42868800776
:100F700016D5E068012800D112E02BE1E068B8B195
:100F80000120C8F80000FFF7C1FD064605E000BFDC
:100F9000FFF7BCFD801B0228C0D828688007F7D562
:100FA0002868216920F0F80040EAC10028600DE0BF
:100FB000C8F800A0FFF7AAFD064604E0FFF7A6FD6B
:100FC000801B02281FD828688007F7D420780007E4
:100FD00022D5824E83486169703671B1012101606A
:100FE000FFF794FD074604E0FFF790FDC01B0228C1
:100FF00009D830688007F7D50EE0C0F800A0FFF7E9
:1010000085FD074605E082E0FFF780FDC01B022852
:101010007DD830688007F7D42078400768D5DFF89E
:10102000BCB100270BF13C0BDBF80000C0000BD477
:10103000DBF8001041F08051CBF80010DBF8000025
:10104000012700F080500090674E3068C00510D432
:10105000306840F480703060FFF758FD009005E084
:10106000FFF754FD0099401A022850D83068C00597
:10107000F6D55A4EA0686C3601280FD00528306886
:1010800010D020F001003060306820F004003060A3
:10109000A068B8B1FFF73AFD00900FE0306840F06B
:1010A0000100F4E740F004003060F7E7FFF72EFDA1
:1010B0000099411A41F28830814266D83068800731
:1010C000F4D50EE0FFF722FD009007E0FFF71EFDCC
:1010D0000099411A41F28830814256D83068800721
:1010E000F4D42FB1DBF8001021F08051CBF80010C0
:1010F000A069C8B33949091D0968C1F381010229F2
:101100004AD00228504607D0C8F8600000E03CE012
:10111000FFF7FCFC04463BE04746C8F86000FFF7D9
:10112000F5FC064605E000BFFFF7F0FC801B022837
:101130002BD828688001F7D4D4E907010843A16AB5
:101140002A4A490802EB0141626A41EA82110843D6
:1011500094F82C1040EA0161C9F8001001203866AB
:10116000FFF7D4FC044606E036E000BFFFF7CEFCF4
:10117000001B022809D828688001F7D52CE000BFA1
:10118000FFF7C4FC001B022802D90320BDE8F88F3A
:1011900028688001F4D41FE00128F7D0D9F80000B6
:1011A000E26900F48001914214D1226A00F03F010B
:1011B00091420FD147F6C071626A0140914209D154
:1011C000A26A00F44031914204D1E16A00F07060FB
:1011D000884201D00120D9E70020D7E70438024037
:1011E00000004742800E4742007000400000FFFFB1
:1011F0007047704710B5040003D094F83D0010B15B
:1012000007E0012010BD002084F83C00204600F0DB
:101210000CF8022084F83D00211D206800F0A0FD9C
:10122000012084F83D00002010BD70470168CA68A5
:1012300042F00102CA600068816801F007010629D6
:1012400003D0016841F00101016000207047704740
:1012500070B50446006801694FF00005C94389076D
:1012600015D4C168C943890711D4E91E0161012061
:101270002077206880698007204602D0FFF7E7FFCB
:1012800004E000F098F8204600F096F825772068F2
:101290000169C943490717D4C168C943490713D431
:1012A0006FF004010161022020772068806910F44A
:1012B000407F204602D0FFF7CAFF04E000F07BF831
:1012C000204600F079F8257720680169C9430907AD
:1012D00016D4C168C943090712D46FF0080101612F
:1012E000042020772068C0698007204602D0FFF7DD
:1012F000AEFF04E000F05FF8204600F05DF82577CF
:1013000020680169C943C90617D4C168C943C90621
:1013100013D46FF010010161082020772068C069A4
:1013200010F4407F204602D0FFF791FF04E000F068
:1013300042F8204600F040F8257720680169C9434B
:10134000C90708D1C168C943C90704D1891E016111
:10135000204600F033F820680169C943090609D422
:10136000C168C943090605D46FF0800101612046B8
:10137000FFF73EFF20680169C943490609D4C168E7
:10138000C943490605D46FF040010161204600F0D1
:101390001FF820680169C94389060BD4C168C94395
:1013A000890607D46FF0200101612046BDE8704036
:1013B000FFF71FBF70BD704770470000006803490A
:1013C000884201D1FFF7A8BB704700000000014030
:1013D000704710B504460068416994F83920C1F39C
:1013E000C011212A0BD151B1416921F08001416125
:1013F000206B08B1FFF7E2F8204600F08FFD20686F
:10140000416994F83A20C1F38011222A0BD151B1DD
:10141000416921F040014161606B08B1FFF7CEF8EE
:10142000204600F06DFD002010BD704770B50268C9
:1014300004461068D168536910F00F0F52D003F0C2
:10144000010501F490762E435FD0C20705D0CA058E
:1014500003D5E26B42F00102E263420705D5DA07E9
:1014600003D0E26B42F00202E263820705D5DA079D
:1014700003D0E26B42F00402E263020707D501F0F9
:1014800020022A4303D0E26B42F00802E263E26BDF
:10149000002A33D0800604D5880602D5204600F005
:1014A00046FD20684069E16BC0F38010090700D455
:1014B00028B3204600F024FD2068416949061AD56A
:1014C000416921F040014161606BA0B11B49016598
:1014D000606BFFF7BAF8002810D0606B016DBDE8B3
:1014E00070400847830610D58B060ED52046BDE810
:1014F000704000F01CBD2046FFF797FF70BD2046EE
:10150000FFF793FF0020E06370BD030606D50B06CE
:1015100004D52046BDE8704000F0E8BD4006F3D594
:101520004806F1D5D168204621F04001D160202144
:1015300084F8391000F016FA70BD0000291E00086A
:1015400070B5040004D094F83900002510B106E00D
:10155000012070BD84F83850204600F023F8242084
:1015600084F839002068C16821F40051C160204628
:1015700000F028FD2068016921F490410161206894
:10158000416921F02A0141612068C16841F400519C
:10159000C160E563202084F8390084F83A00002017
:1015A00070BD00002DE9F04F87B004461421684655
:1015B000FEF7B0FE6C49D4F800C06C480222032349
:1015C0000726DFF8ACB100258C451DD167491431E1
:1015D0000C6844F010040C60096801F010010591DA
:1015E000016841F0010101600068694600F00100F6
:1015F000059058028DE82500CDE903365846FFF7DF
:10160000A9F907B0BDE8F08F5849DFF868811031BB
:101610004F054FF0400A4FF48069C4454DD1D1F8D1
:1016200000C04CF4003CC1F800C0096801F400316E
:101630000591016841F0010101600068694600F010
:10164000010005900C208DE82500CDE903365846B1
:10165000FFF780F9494E4848C8463060C6E9017531
:10166000C6E9035975614FF40039B561C6E90759F8
:1016700030467562FFF7CCF808B1FEF79EFF66634F
:10168000B4633E4E3C4860361830C6E90358756175
:10169000B561C6E90759756286E881043046FFF7EF
:1016A000B7F808B1FEF789FF26630022052126203E
:1016B000B463FFF7B3FA262053E0DFF8C480C445D3
:1016C0009FD1D1F800C04CF4802CC1F800C009684B
:1016D00001F480210591016841F002010160006878
:1016E000694600F0020005904FF440608DE8250047
:1016F000CDE903362348FFF72DF9204E1E48C036AA
:1017000060383060C6E90175C6E90359B8464F46EE
:1017100075614FF44039B561C6E9075930467562C5
:10172000FFF776F808B1FEF748FF6663B463164E1C
:101730001148C6E903577561B561C6E907593038E4
:10174000756286E801053046FFF762F808B1FEF7DA
:1017500034FF2663002205212720B463FFF75EFAD9
:101760002720FFF74DFA4CE70010014030380240C7
:101770000000024000440040886002406C060020E7
:1017800000480040000402408C070020F8B50446E1
:1017900090F83A0020283CD1C1B3BAB394F838008D
:1017A000012836D0012084F83800A162A2850025E6
:1017B000E563222084F83A00636B1748D863636BB3
:1017C00016481864636B1648D864606B1346056549
:1017D0000846666B216802463046091DFFF782F80D
:1017E000206801684168009184F83850C16841F46C
:1017F0008071C1602068416941F001014161206848
:10180000416941F0400141610020F8BDFFE701203E
:10181000FBE70220F9E70000831E0008BF1E000856
:10182000391E0008704770472DE9F843044690F8C8
:1018300039001F4616460D46202850D1B5B1AEB12D
:1018400094F8380001284AD0012084F838004FF07D
:101850000008C4F83C80212084F83900FFF756F9CD
:10186000A6848146E68484F8388026E00120BDE81D
:10187000F883E08C401EE084A0684B46B0F5805FA2
:101880004FF000024FF080012046009703D000F097
:101890005EFCE8B90DE000F05AFCC8B92888216860
:1018A000C0F308004860206908B16D1C05E0AD1C5C
:1018B00003E0216815F8010B4860E08C0028D8D1BE
:1018C0004B46002240212046009700F040FC08B122
:1018D0000320CCE7202084F839000020C7E702204D
:1018E000C5E7000070B5044690F83900202830D1D3
:1018F00069B362B394F8380001282AD0012084F833
:1019000038002162A284E2840025E563212084F866
:101910003900236B1048D863236B10481864236B7D
:101920000F48D864206B134605652668206B321D6E
:10193000FEF7D8FF21686FF04000086084F8385047
:101940002068416941F080014161002070BD0120A3
:1019500070BD022070BD0000C91E0008F71E0008FF
:10196000391E00087047704710B504460078A52856
:1019700073D160785A2870D144A000F039FD6079A5
:10198000217940F2127200EB012080B2A0F21271B4
:10199000904246D014DC40F20972A0F209719042E4
:1019A0002AD008DCA0F5E060013811D0012815D05C
:1019B000022864D119E0072925D008295FD129E040
:1019C00007295CD2DFE801F05B343B424A5B5100FF
:1019D000207A012858D1082130484CE0207A01288B
:1019E00052D12E480821103045E0207A01284BD1F1
:1019F0002A48082120303EE0207A012844D1274897
:101A00000821303037E0207A01283DD123480821D1
:101A1000403030E0207A012836D12048082150306B
:101A200029E0207A01282FD11C480821603022E0CB
:101A3000207A012828D11948082170301BE0207A2B
:101A4000012821D115480821803014E0207A01288E
:101A50001AD11248082190300DE015E0207A0128B3
:101A600012D10E480821A03005E0207A01280BD1C0
:101A70000A480821B030BDE81040FEF7C9BCBDE8F7
:101A8000104007A000F0B4BC10BD000048656C6CAD
:101A90006F20776F726C640D0A0000002000002038
:101AA000436F6D6D656E64204572726F722E2E2EBF
:101AB0000D0A0000FEE70000154808B5016841F472
:101AC000001101600068002200F400100090052160
:101AD0000C20FFF7A3F80C20FFF792F80022052155
:101AE0000E20FFF79BF80E20FFF78AF80022052151
:101AF0001020FFF793F81020FFF782F8002205214D
:101B00001120FFF78BF8BDE808401120FFF778B8E7
:101B10003038024030B51E4D9DB0D5E90001CDE909
:101B200015011BA81790002115A800F03BFE194CC9
:101B3000E060D5E90301CDE918011CA81A90002145
:101B400018A800F02FFE20611C2205F1180168463C
:101B5000FEF7C7FB0021684600F04AFF60611C22C7
:101B600005F1340107A8FEF7BCFB002107A800F02F
:101B70003FFFA0611C2205F150010EA8FEF7B1FB4A
:101B800000210EA800F034FFE0611DB030BD000060
:101B9000A03C0008000000200D4808B5016841F095
:101BA00080010160016801F080010091016841F04D
:101BB00001010160016801F001010091016841F03B
:101BC00002010160006800F00200009008BD000002
:101BD000303802400C4810B50A4901604FF4E13139
:101BE0004160002181600C22C160C0E90412816162
:101BF000C161FFF7A5FC002803D0BDE81040FEF747
:101C0000DCBC10BD00100140AC0500200C4810B534
:101C10000A4901604FF4E1314160002181600C22EA
:101C2000C160C0E904128161C161FFF789FC00282D
:101C300003D0BDE81040FEF7C0BC10BD004400401A
:101C4000EC0500200C4810B50A4901604FF4E13161
:101C50004160002181600C22C160C0E904128161F1
:101C6000C161FFF76DFC002803D0BDE81040FEF70E
:101C7000A4BC10BD004800402C060020FEE77047C1
:101C8000012000F07DFDFBE710B5502080F31188A6
:101C9000BFF34F8FBFF36F8F01F0B6FE18B1044949
:101CA0004FF080500860002080F3118810BD0000C4
:101CB00004ED00E030B593B030216846FEF72AFB12
:101CC00014210CA8FEF726FB19480025016841F0F5
:101CD00080510160006800F0805011901548016843
:101CE00041F4804101600068022400F480401190BA
:101CF00001200090000401908001CDE9064008AA6F
:101D00000420A82182E813000B906846FFF7C2F870
:101D10000CA90F2081E831004FF4A0500F90E00291
:101D2000109005210CA8FEF7ABFF13B030BD0000EA
:101D300040380240007000400548016841F47001DD
:101D4000016003494FF0006080390860704700006F
:101D500088ED00E00148FFF77BBA0000EC070020A7
:101D6000F0B50268254C264D264E274F274B4FF0E5
:101D7000804CA04209D0604507D0A84205D0B042AF
:101D800003D0B84201D0984204D122F0700E4A68C4
:101D900042EA0E02A0421BD0604519D0A84217D0DB
:101DA000B04215D0B84213D0984211D0184DA84275
:101DB0000ED0184DA8420BD0174DA84208D0174D91
:101DC000A84205D0164DA84202D0164DA84203D114
:101DD00022F44075CA682A434D6922F080022A43E2
:101DE00002608A68C2620A688262A04201D0984298
:101DF00001D10969016301214161F0BD0000014089
:101E00000004004000080040000C004000040140B5
:101E100000400140004401400048014000180040DB
:101E2000001C00400020004010B5806B0021C185DF
:101E3000C184FFF7FAFA10BD70B5846B2068406961
:101E400094F83910C0F3C0100025212904D118B12D
:101E5000E584204600F062F82068406994F83A1062
:101E6000C0F38010222904D118B1E585204600F086
:101E700047F8E06B40F01000E0632046FFF7D5FA2A
:101E800070BD10B50146806B09680968C90513D497
:101E90000021C1850168CA6822F48072CA600168A5
:101EA0004A6922F001024A6101684A6922F040024F
:101EB0004A61202180F83A10FFF7B4FC10BD10B53C
:101EC000806BFFF7B0FC10BD10B50146806B096850
:101ED0000968C9050CD40021C18401684A6922F04F
:101EE00080024A610068C16841F04001C16010BDD4
:101EF000FFF738FD10BD10B5806BFFF734FD10BD46
:101F00000168CA6822F49072CA6001684A6922F0C6
:101F100001024A61202180F83A1070470168CA68BE
:101F200022F0C002CA60202180F83910704710B535
:101F300090F83A10222901D0022010BD8168B1F535
:101F4000805F11D00169002901681FD0496801F044
:101F50007F03816A4A1C82620B70C18D491E09048D
:101F6000090CC18518D02BE00269816A002A026839
:101F7000526805D0D2B20A80816A491C8162ECE7BE
:101F8000C2F308020A80816A891CF7E74A68816AFD
:101F90004B1C83620A70E0E70168CA6822F02002E5
:101FA000CA600168CA6822F48072CA6001684A691E
:101FB00022F001024A61202180F83A10FFF732FC3A
:101FC000002010BD2DE9F041044600680169E26877
:101FD00021F44051114301612169A068E26908437D
:101FE0006169114308432168CA6849F20C639A4346
:101FF0000243CA6020684169A26921F4407111431B
:102000004161E069192764253226B0F5004F354A51
:10201000354920684FF0000806D0884201D0904230
:1020200036D1FEF7F7FE35E0884201D0904202D16A
:10203000FEF7F0FE01E0FEF7DDFE61684A18A0FB46
:10204000070148EB0803FEF71BF90146B0FBF5F06A
:102050000201B1FBF5F06FF01803584301EB80006B
:1020600006EBC000B0FBF5F000F0F80002EB400218
:10207000B1FBF5F0584301EB800006EBC000B0FB6C
:10208000F5F000F00700216810448860BDE8F08199
:10209000FEF7B0FE61688B0F8A00A0FB0701FEF718
:1020A000EFF80146B0FBF5F06FF01802504301EB7A
:1020B000800006EB0010B0FBF5F000F0F002B1FB81
:1020C000F5F002EB0012B1FBF5F06FF01803584386
:1020D00001EB800006EB0010B0FBF5F000F00F0004
:1020E000D1E70000001401400010014090F83910C1
:1020F000212901D0022070478168B1F5805F016A13
:102100000BD04A1C0262026809785160C18C491EDA
:102110000904090CC1840ED017E009880268C1F3D4
:102120000801516001690029016A02D0491C01625D
:10213000ECE7891CFBE70168CA6822F08002CA60EC
:102140000068C16841F04001C160002070472DE97E
:10215000F041984617460E460446069D1DE0681C51
:102160001BD02DB1FEF7D2FCA0EB0800A84214D979
:102170002068C16821F4D071C1602068416921F0F4
:1021800001014161202084F8390084F83A000020E0
:1021900084F838000320BDE8F0812068006836EA42
:1021A000000004D00020B842D9D00020F3E701207D
:1021B000F9E700000EB54FF4807000F083FE184C74
:1021C000A060FEF70FF900226846E16800F01EFBF0
:1021D000DDE9000120281ED1087860704868A06001
:1021E000E06800F00DFB61780EA000F001F9617865
:1021F000A068FEF70DF96178A068FFF7B5FB002530
:1022000006E0A068415D0FA000F0F2F86D1CEDB291
:1022100060788542F5D3012000F0B2FAD3E70000E0
:102220000000002055736172743220526563656945
:1022300076652044617461206C656EA3BA25640DD7
:102240000A00000025780D0A0000000010B500F01B
:1022500059F8BDE810400148FFF7E8B8EC05002048
:102260000EB54FF4807000F02DFE164C6060FEF746
:10227000F7F800226846216900F0C8FADDE900019C
:1022800020281AD10878207048686060206900F022
:10229000B7FA21780CA000F0ABF821786068FEF75F
:1022A000F5F8002506E06068415D0FA000F0A0F899
:1022B0006D1CEDB220788542F5D3012000F060FA64
:1022C000D7E700000000002055736172743320527C
:1022D0006563656976652044617461206C656EA3F1
:1022E000BA25640D0A00000025780D0A00000000E0
:1022F00010B500F041F8BDE810400148FFF796B86E
:102300002C06002058B5184800680168C943C90662
:102310001ED40168406800901348FFF75AF8134E26
:102320000021306800F038FA04460F488030006819
:1023300040684FF48072C0F5807020800C490A48D4
:10234000FFF724FA0A4860602146306800F0A6FAD8
:10235000002D07D007494FF080500860BFF34F8F22
:10236000BFF36F8F58BD0000EC0500200C0000206B
:10237000AC04002004ED00E058B51748006801687F
:10238000C943C9061DD40168406800901248FFF790
:1023900020F8124E0021306800F0FEF90446104883
:1023A000006840684FF48072C0F5807020800D494D
:1023B0000948FFF7EBF90B4860602146306800F0F0
:1023C0006DFA002D07D008494FF080500860BFF328
:1023D0004F8FBFF36F8F58BD2C06002010000020D8
:1023E0002C070020AA03002004ED00E0FEE7000017
:1023F0000FB4054B10B503A9044A029800F028F861
:1024000010BC5DF814FB00001127000850010020EB
:102410000907090E002804DB00F1E02080F8001411
:10242000704700F00F0000F1E02080F8141D7047A5
:1024300002E008C8121F08C1002AFAD1704770478D
:10244000002001E001C1121F002AFBD170470000EB
:102450002DE9FF4F8DB09B460F460446002606E04F
:1024600025280BD05A460F999047641C761C20787B
:102470000028F5D111B03046BDE8F08F0025A84600
:102480000122984900E0054314F8013F203B02FA7D
:1024900003F00842F7D120782E2817D114F8010F45
:1024A00045F004052A280ED06FF02F022078A0F105
:1024B000300109290AD808EB880102EB410100EB41
:1024C0000108641CF2E757F8048B641C20786C2820
:1024D0000DD004DC4C2812D06A2811D104E07428F5
:1024E0000DD07A280CD10AE045F4001507E0617898
:1024F00045F48015814202D1641C05F58015641CE9
:102500002278692A45D008DC002AB3D0582A69D03D
:10251000632A10D0642A08D13BE0702A67D0732A5E
:1025200013D0752A5CD0782A5CD010465A460F9991
:102530009047761CD3E017F8040B8DF800000020BC
:102540008DF80100E946012003E057F8049B4FF0A5
:10255000FF3069074FF0000501D40AE06D1C4545C6
:102560000DDA8542FADB19F805100029F6D106E0EC
:102570006D1C8542FCDB19F805100029F8D12E44AA
:1025800004E019F8010B5A460F9990476D1EF8D2D6
:10259000A5E00A200021CDE90801C5F30250022878
:1025A0000DD001CFC117031E71F100030DDA4FF0FA
:1025B000000CD0EB0C006CEB01012D2308E0FF1D9B
:1025C00027F00707F7E80201EDE72B0504D52B23D9
:1025D0008DF8283001233BE0EB0739D02023F7E7C3
:1025E0000A2000E010200021CDE9080107E01020BA
:1025F000002145F00405CDE908014FF00808C5F3B6
:10260000025002280FD001CF00214FF0000A2B0703
:102610001FD5702A0DD0DDE908C38CF0100C5CEAE0
:10262000030C0CD015E0FF1D27F00707F7E80201A7
:10263000EBE740228DF828204FF0010A0BE050EA2A
:10264000010306D030238DF828308DF8292002238D
:102650009A46582A04D024A20DF120090B9209E0D1
:1026600026A2F9E7DDE90823FDF70AFE0B9B9B5C38
:1026700009F8013D50EA0102F4D1ADEB0900203028
:102680000890680701D44FF001080899884502DDD9
:10269000A8EB010000E000208046002506E00AA823
:1026A0005A46405D0F9990476D1C761C5545F6DBE8
:1026B00004E030205A460F999047761CB8F100018B
:1026C000A8F10108F5DC05E019F8010B5A460F994D
:1026D0009047761C0899481E08900029F4DC641C79
:1026E000C5E6000009280100303132333435363771
:1026F000383961626364656600000000303132334E
:1027000034353637383941424344454600000000ED
:1027100013B54FF47A73012269460248FFF784F833
:1027200000981CBDAC050020EFF30580002800D008
:1027300001207047FEF7F8F9FFF7BCFAFFF72CFA13
:10274000FFF7BAF9FFF746FAFFF77CFAFFF75EFAF0
:1027500003A0FFF74DFEFFF7DDF900F018F8FEE7E4
:1027600053797374656D20696E6974206F6B0D0AFF
:102770000000000001460020842900D0C81C7047DA
:1027800010B500B9012000F00DFD002010BD10B5FE
:1027900000F054FD002010BD002802D0806800F039
:1027A000ABB870473EB504460020009001900290FF
:1027B00020680090606801900C2000F083FBA16805
:1027C0000028086019D0046000220421206800F06D
:1027D0001BFEA16809684860A168096870B1684675
:1027E00000F0BFF80100A06800688160A068006880
:1027F00003D100BF00F06CFC00203EBD0846F9E7A5
:1028000010B1806800F0DCB8802070472DE9FF41EE
:102810000D000646029522D04FF000084446CDF840
:102820000C80501C20D002B11446FFF77DFF2027FA
:102830000028686869461CD003AA091D00F0F6FF4D
:10284000012814D0CDF800800398D8B112494FF078
:1028500080500860BFF34F8FBFF36F8F12E080206E
:1028600000902A4601990FE04FF0FF34DDE7009712
:10287000EAE72246091D00F03DFF012808D04CB1CF
:10288000402000909DE8070086E80700BDE8FF8132
:102890000097F7E70020F4E704ED00E013B582B0FD
:1028A00004000FD000200090FFF73EFF0028606872
:1028B0004FF0000314D06A4603A900F0BDFE0128C2
:1028C00014D102E0802004B010BD009880B1094905
:1028D0004FF080500860BFF34F8FBFF36F8F07E05A
:1028E000002203A900F0F8FD012801D0FF20EAE74B
:1028F0000020E8E704ED00E070B5002504462E4610
:10290000FFF712FF48B15020EFF3118580F31188D3
:10291000BFF34F8FBFF36F8F01E000F0A5FB0021E5
:10292000A26809E020690844B0FBF2F302FB13003F
:1029300063681B5C43B1491C8A42F3D8FFF7F4FE7D
:1029400058B185F311880AE0626801211154E268E8
:102950002168206100FB0216F0E700F0A5FB30467D
:1029600070BD2DE9F04105464068C01C20F003070A
:10297000142000F0A7FA04001FD000262868266162
:10298000C4E90207286800F09DFA606088B12868F1
:10299000784300F097FA206040B1002002E06168BF
:1029A0000E54401C29688142F9D806E0606800F0A6
:1029B0008FFB204600F08CFB00242046BDE8F08110
:1029C00078B171B102688A420BD8891AC268B1FB2A
:1029D000F2F302FB131323B9B1FBF2F182688A42CE
:1029E00001D880207047406800224254104670474A
:1029F0007FB50D4604464169B0F9080081B1A1696F
:102A000071B1FFF7B7FED4E905128DE80700D4E9EC
:102A100000102B46226900F0BEFF039004B070BD89
:102A2000FFF7A8FE03A9CDE90001208A2B4682B258
:102A3000D4E9001000F082FF012801D00020EDE76A
:102A40000398EBE72DE9F041184C0F4605466669FF
:102A50002068001D00F0B8FA38B9206890F82C10F2
:102A600001208840A1698143A161681C07D137B169
:102A70002168BDE8F0410E48091D00F0E9BA206860
:102A80003544B5424560216805D2A068BDE8F041F3
:102A9000091D00F0C5BA6068091D00F0C1FA206B7D
:102AA000854200D22563BDE8F0810000F0000020DF
:102AB000080900202DE9F041054600F0D5FA2E4C1A
:102AC0002069401C206120682C4F10B1E06940B3A0
:102AD0002DE025602069012829D1002606EB86001B
:102AE00007EB800000F08EFA761C072EF6D3234801
:102AF0008C3000F087FA2148A03000F083FA1F489C
:102B0000B43000F07FFA1D48C83000F07BFA1B4853
:102B1000DC3000F077FA19488C3060601430A06027
:102B200005E02068E96AC06A884200D82560E06A4A
:102B3000401CE062E96A0120A26988401043A0615C
:102B400001EB810007EB8000291D00F081FA00F005
:102B5000ABFAE06900280CD02068E96AC06A8842B4
:102B600007D207494FF080500860BFF34F8FBFF383
:102B70006F8FBDE8F0810000F00000202C080020DD
:102B800004ED00E030B4026C0B46002A0BD0C168A3
:102B90001144C1608468A14201D30168C16030BCA6
:102BA0001846FDF79EBB30BC70472DE9F041856BA0
:102BB000174604460026026C82B1C7B1E068FDF7F3
:102BC00090FBE168206C091AE1602268914202D210
:102BD000A168081AE060022F16D017E02068A8B993
:102BE000A06800F075FF06460020A0600EE0606857
:102BF000FDF777FB216C606808446060A16888423B
:102C000004D32068606001E005B16D1E6D1CA563F2
:102C10003046BDE8F08110B5044690F8510058B137
:102C200001280CD002280FD0502080F31188BFF368
:102C30004F8FBFF36F8FFEE7206B00F049FA2046FD
:102C4000BDE8104000F044BA10BD000010484FF439
:102C50007051420706D0C01D0D4920F00700411AEF
:102C6000C1F570510B4A00230144C2E90003083941
:102C7000103A21F0070111604B600B600B1AC0E99C
:102C8000001393604FF000405360D0607047000025
:102C90001C0900203C010020144E154CA6F1C80769
:102CA0004FF08058DFF84C9012E000BF00F0DCF9E4
:102CB000F068C568281D00F087F92069401E206172
:102CC000E068401EE06000F0EFF92846FFF7A3FF40
:102CD000E0680028EAD138680128F9D9C9F80080ED
:102CE000BFF34F8FBFF36F8FF2E70000F4080020AF
:102CF000F000002004ED00E00346009829B10260D6
:102D0000C0E90F31012100F0A3BB0060F8E72DE915
:102D1000F0479A46DDE9098481466FF00303206B92
:102D200003EB82021044089E20F00707780707D0C3
:102D3000502080F31188BFF34F8FBFF36F8FFEE7F2
:102D4000002561B1002023180A5C83F834200A5C56
:102D500012B1401C1028F6D384F8435001E084F8E7
:102D60003450072E00D30626E662C4E91165201D03
:102D700000F053F904F1180000F04FF92461C6F196
:102D800007006462A061E56484F8505052464946E9
:102D9000384600F003F92060B8F1000F01D0C8F800
:102DA0000040BDE8F087000030B5114900E0114651
:102DB0000A688242FBD34B685C18844203D14068A6
:102DC00018444860084643681C18944209D1084CCE
:102DD000103C2468A24209D052681A4442600A6832
:102DE00012680260814200D0086030BD0460F9E7DB
:102DF0003C01002010B5044600F036F9A06B28B164
:102E00005FF0000400F050F9204610BD0124F9E7FE
:102E100006484168096829B14168C968C9684968B4
:102E2000016370474FF0FF31FAE70000F000002027
:102E300008484068401C4FF0500080F3118804D0CF
:102E4000BFF34F8FBFF36F8FFEE7BFF34F8FBFF31B
:102E50006F8FFEE7440100202DE9F041044600F0A9
:102E600003F994F9455004F1240609E0606A48B179
:102E7000304600F079FE08B100F0C2F96D1E6DB267
:102E8000002DF3DC4FF0FF3684F8456000F00CF9BC
:102E900000F0EAF894F9445004F1100709E02069C1
:102EA00048B1384600F060FE08B100F0A9F96D1E87
:102EB0006DB2002DF3DC84F84460BDE8F04100F011
:102EC000F3B800002DE9F0410546002700F0ECF9C9
:102ED000314E306808B9FFF7B9FEF06805424BD1B2
:102EE000C5B3083568070ED005F00700C0F108002B
:102EF0000544680707D0502080F31188BFF34F8F37
:102F0000BFF36F8FFEE72DB37068854234D8224837
:102F1000103001460C6801E020460C466168A94269
:102F200002D221680029F7D131688C4224D0076889
:102F30002168016060680837411B10290FD96019AA
:102F4000420708D0502080F31188BFF34F8FBFF3A2
:102F50006F8FFEE710E041606560FFF725FF616855
:102F60007068401A7060B268904200D2B060F06839
:102F700001430020C4E9000100F030FE780707D0CB
:102F8000502080F31188BFF34F8FBFF36F8FFEE7A0
:102F90003846BDE8F08100002C01002010B5031F69
:102FA0004FF080741C601B1F21F001011960191F74
:102FB000044B0B6014390A60091F6FF00202443899
:102FC0000A6010BD312E0008D0E9013201699A6013
:102FD000D0E901235A604A68824201D182684A607E
:102FE000002202610868401E0860086870470000FF
:102FF000034B036003F154000860802010607047A9
:103000005401002000F108014FF0FF32C0E9011225
:10301000C1600161002101607047002101617047BA
:1030200030B50B685A1C02D000F1080202E00269B8
:1030300004E02246546825689D42FAD953684B60E3
:1030400099608A60516008610168491C016030BD67
:1030500042684A6093688B60936859609160086128
:103060000168491C01607047502080F31188BFF34C
:103070004F8FBFF36F8F0A494868401C4860012892
:103080000CD10848006810F0FF0F07D0502080F3E3
:103090001188BFF34F8FBFF36F8FFEE770470000BB
:1030A0004401002004ED00E00849486828B1401EB2
:1030B000486001D180F311887047502080F3118857
:1030C000BFF34F8FBFF36F8FFEE700004401002076
:1030D00070B5002827D0144DA0F108046168E86895
:1030E000014207D1502080F31188BFF34F8FBFF307
:1030F0006F8FFEE722683AB1502080F31188BFF34A
:103100004F8FBFF36F8FFEE78143616000F0CCF813
:1031100060686968084468602046FFF745FEBDE8BE
:10312000704000F05BBD70BD2C0100204FF0E0202E
:1031300000210161816105494FF47A720968B1FB90
:10314000F2F1491E4161072101617047EC00002046
:1031500010B5FDF77FF8114910280ED300F1E020DB
:1031600090F8F0030A78904207D2502080F311883B
:10317000BFF34F8FBFF36F8FFEE709480068896880
:1031800000F4E060884207D9502080F31188BFF333
:103190004F8FBFF36F8FFEE710BD0000440100208A
:1031A0000CED00E010B5020014D00F48806B38B170
:1031B000502080F31188BFF34F8FBFF36F8FFEE76E
:1031C00000F072F800211046FFF73CFC00F006FD0D
:1031D000002807D105494FF080500860BFF34F8F9A
:1031E000BFF36F8F10BD0000F000002004ED00E081
:1031F00002498A6A0260496941607047F000002014
:103200000149012048627047F000002010B50C46CB
:1032100050B1094909681831FFF702FF2046BDE89F
:1032200010400121FFF70EBC502080F31188BFF33E
:103230004F8FBFF36F8FFEE7F000002010B586B010
:103240000024039405AA04A903A80494FFF7D0FE60
:10325000DDE903010094CDE9011000230EA110481F
:10326000059A00F098FB0F490028486311D05020C0
:1032700080F31188BFF34F8FBFF36F8F4FF0FF3094
:1032800008630120C8614C6106B0BDE8104000F041
:1032900041B806B010BD000049444C450000000094
:1032A000992C0008F00000200248816B491C8163C2
:1032B00070470000F00000201448816B11B101211B
:1032C00041627047002141628169B1FA81F1C1F127
:1032D0001F0101EB81020E4951F822306BB101EB65
:1032E000820101F108034A6852684A609A4201D19A
:1032F00052684A60D16801607047502080F311889D
:10330000BFF34F8FBFF36F8FFEE70000F000002088
:103310002C0800201CB537480168374A914207D174
:10332000502080F31188BFF34F8FBFF36F8FFEE7FC
:1033300000683149491E884207D1502080F3118826
:10334000BFF34F8FBFF36F8FFEE72C4908780190D2
:10335000FF20087008788DF800009DF800009DF8A7
:10336000002000F0F000904207D0502080F3118838
:10337000BFF34F8FBFF36F8FFEE79DF80000204B28
:1033800000F0500018700720986005E09DF80020BC
:1033900052008DF80020401E9DF800201206F5D442
:1033A0009860032807D0502080F31188BFF34F8F17
:1033B000BFF36F8FFEE74FF440709860019808707C
:1033C0000C482030016841F470010160016841F04F
:1033D00070410160FFF7AAFE00205860FCF702FF71
:1033E0000848016841F040410160FCF7E7FE002019
:1033F0001CBD000000ED00E071C20F4100E400E0E0
:103400004401002034EF00E0F8B517460E460500F1
:1034100014D0DEB105FB06F04830FFF753FD040081
:103420000AD0002084F8460004F148023B463146A9
:1034300028460094FFF760FC2046F8BD502080F33A
:103440001188BFF34F8FBFF36F8FFEE70020E3E7D4
:1034500070B50D46040025D0FFF706FED4E90F2015
:10346000216802FB0011A1600021A1632168616055
:103470000A46D4E90F01401E00FB0121E16021460C
:103480004FF0FF3001F8440F487004F110008DB187
:10349000FFF7B8FD04F12400FFF7B4FDFFF704FEC9
:1034A000012070BD502080F31188BFF34F8FBFF310
:1034B0006F8FFEE721690029F0D000F055FB00284E
:1034C000ECD004494FF080500860BFF34F8FBFF33A
:1034D0006F8FE3E704ED00E02DE9FF4782B01D4662
:1034E0008A464FF00008040003D0BAF1000F08D05C
:1034F00011E0502080F31188BFF34F8FBFF36F8F1F
:10350000FEE7206C38B1502080F31188BFF34F8F55
:10351000BFF36F8FFEE7022D0AD1E06B012807D0C1
:10352000502080F31188BFF34F8FBFF36F8FFEE7FA
:1035300000F05CFA3F4F4FF000094FF0805648B959
:10354000049838B1502080F31188BFF34F8FBFF338
:103550006F8FFEE7FFF788FDA06BE16B884207D312
:10356000022D05D00498D0B1B8F1000F1AD01EE09A
:103570002A4651462046FFF718FB616A19B104F14B
:10358000240000F0F1FA20B13E60BFF34F8FBFF38B
:103590006F8FFFF789FD012006B0BDE8F087FFF7C8
:1035A00083FD22E06846FFF723FE4FF00108FFF796
:1035B0007BFDFFF779FEFFF757FD94F94400401CAF
:1035C00001D184F8449094F94500401C01D184F85D
:1035D0004590FFF769FD04A9684600F075F930B120
:1035E0002046FFF739FC00F0F9FA0020D4E7FFF796
:1035F0003BFDA06BE16B884213D1FFF755FD04F151
:1036000010000499FFF702FE2046FFF725FC00F0AA
:10361000E5FA00289ED13E60BFF34F8FBFF36F8F56
:1036200098E7FFF741FD2046FFF716FC00F0D6FAB9
:1036300090E7000004ED00E02DE9F0471F469046BA
:103640008946040003D0B9F1000F08D011E05020E2
:1036500080F31188BFF34F8FBFF36F8FFEE7206CAD
:1036600038B1502080F31188BFF34F8FBFF36F8FB5
:10367000FEE7022F0AD1E06B012807D0502080F32B
:103680001188BFF34F8FBFF36F8FFEE7FFF760FD29
:103690005020EFF3118680F31188BFF34F8FBFF3F3
:1036A0006F8FA06BE16B884206D3022F04D00020FD
:1036B00086F31188BDE8F08794F945503A464946AB
:1036C0002046FFF772FA681C04D06D1C84F8455040
:1036D0000120EDE7606A0028FAD004F1240000F030
:1036E00043FA0028F4D0B8F1000FF1D00121C8F856
:1036F0000010EDE72DE9F747002683B08A46040065
:1037000003D0BAF1000F08D011E0502080F31188E7
:10371000BFF34F8FBFF36F8FFEE7206C38B150209F
:1037200080F31188BFF34F8FBFF36F8FFEE700F078
:103730005DF9DFF8F4804FF000094FF0805748B989
:10374000059838B1502080F31188BFF34F8FBFF335
:103750006F8FFEE7FFF788FCA56BC5B15146204689
:10376000FFF710FA6D1EA563206950B104F1100037
:1037700000F0FAF928B1C8F80070BFF34F8FBFF31B
:103780006F8FFFF791FC012006B0BDE8F087059828
:1037900008B11EB106E0FFF787FC27E06846FFF797
:1037A00027FD0126FFF780FCFFF77EFDFFF75CFC9D
:1037B00094F94400401C01D184F8449094F94500E8
:1037C000401C01D184F84590FFF76EFC05A96846BE
:1037D00000F07AF8002820460AD0FFF73DFB00F001
:1037E000FDF92046FFF706FB0028B3D00020CBE709
:1037F000FFF700FB90B104F124000599FFF706FDE7
:103800002046FFF729FB00F0E9F90028A2D1C8F80B
:103810000070BFF34F8FBFF36F8F9BE72046FFF71A
:103820001BFB00F0DBF995E704ED00E02DE9F04724
:1038300090468946040003D0B9F1000F08D011E08A
:10384000502080F31188BFF34F8FBFF36F8FFEE7D7
:10385000206C38B1502080F31188BFF34F8FBFF335
:103860006F8FFEE7FFF774FC5020EFF3118680F3B3
:103870001188BFF34F8FBFF36F8FA76BF7B194F928
:10388000445049462046FFF77DF97F1EA763681C18
:1038900004D06D1C84F84450012010E020690028F9
:1038A000FAD004F1100000F05FF90028F4D0B8F16C
:1038B000000FF1D00121C8F80010EDE7002086F3D9
:1038C0001188BDE8F08700002DE9F0410C460500A5
:1038D00011D0C4B1FFF7C8FB174B5A696E68206856
:1038E000911B471C17D02F689B6A9F4219D09642A4
:1038F00017D8012410E0502080F31188BFF34F8FB8
:10390000BFF36F8FFEE7502080F31188BFF34F8F16
:10391000BFF36F8FFEE70024FFF7C6FB2046BDE82C
:10392000F081884205D9401A20602846FFF760FCE4
:10393000F1E700202060DCE7F00000202DE9FF5FC8
:103940008346DDE90E87994616468A469000FFF7C2
:10395000B9FA05001CD05420FFF7B4FA040014D0C3
:103960000020256384F85100CDE90240CDE90087AD
:103970004B46324651465846FFF7C9F92046FFF7F5
:1039800099F8012004B0BDE8F09F2846FFF7A0FB9E
:103990004FF0FF30F6E7F0B585B0DDE90B640A9D26
:1039A000A6B1DCB1542700972663022684F8516043
:1039B000002604AFCDE90246CDE90057FFF7A7F98D
:1039C0002046FFF777F8049805B0F0BD502080F34B
:1039D0001188BFF34F8FBFF36F8FFEE7502080F346
:1039E0001188BFF34F8FBFF36F8FFEE70548C169A2
:1039F00019B1806B18B10020704701207047022078
:103A000070470000F00000202DE9F0412E4C002707
:103A1000A06B40B1206A401C2062606A00B101279F
:103A20003846BDE8F0816669761C666113D160682E
:103A3000006838B1502080F31188BFF34F8FBFF377
:103A40006F8FFEE76068A1686160A060A06A401C9B
:103A5000A062FFF7DDF9206BDFF87080864209D3A2
:103A60006068006880B16068C068C5686868864240
:103A70000DD220632068C06A00EB800158F8210055
:103A80000128CAD90127C8E74FF0FF30F1E7281D08
:103A9000FFF79AFAA86A18B105F11800FFF794FA2F
:103AA000E86A0121A26981401143A16100EB800114
:103AB00008EB8100291DFFF7CBFAE86A2168C96A83
:103AC0008842CDD30127CBE7F00000202C0800204E
:103AD00070B504004FF0000140D0214D28688442A9
:103AE00007D0502080F31188BFF34F8FBFF36F8F43
:103AF000FEE7A06C38B1401EA064636CE26A9A4293
:103B00002CD040B12AE0502080F31188BFF34F8FB2
:103B1000BFF36F8FFEE7201DFFF756FA114A012110
:103B200050B9E06A00EB800352F8233023B9AB6947
:103B300001FA00F08343AB61606CE062C0F1070002
:103B4000A061E06AAB6981401943A96100EB800084
:103B500002EB8000211DFFF77BFA0121084670BDB2
:103B6000F00000202C0800202DE9F041C068C46856
:103B7000ACB104F118000746FFF726FA154DA86B03
:103B80000126A0B139461448FFF762FAE06A2968B5
:103B9000C96A88421CD901206E62BDE8F0815020BC
:103BA00080F31188BFF34F8FBFF36F8FFEE7201DA7
:103BB000FFF70AFAE16AAA6906FA01F01043A86160
:103BC00001EB81000449B43901EB8000211DDBE7E2
:103BD0000020E2E7F0000020E00800202DE9F04797
:103BE0002C4D00242746A86B38B1FFF73DFAA86B8F
:103BF000401EA863A86B40B146E0502080F31188B6
:103C0000BFF34F8FBFF36F8FFEE72969224E01206C
:103C1000D1B3A6F1B40980463068E8B1F068C46851
:103C200004F11800FFF7D0F9201DFFF7CDF9E06A85
:103C3000AA6908FA00F11143A96100EB800109EBC0
:103C40008100211DFFF704FAE06A2968C96A8842E9
:103C5000E2D3C5F82480DFE70CB1FFF7D9F82C6A6E
:103C600044B14646FFF7D0FE00B16E62641EF9D142
:103C700000202862686A38B10849012738070860BF
:103C8000BFF34F8FBFF36F8FFFF70EFA3846BDE8D3
:103C9000F0870000F0000020E008002004ED00E0C4
:103CA0000400000008000000000000000400000004
:103CB00008000000000000004C3D0008811C0008C6
:103CC0000000000000000000800000000000000074
:103CD000000000003C3D000861220008FDFF0000DC
:103CE0000000000080000000000000000000000054
:103CF0002C3D0008B5210008FDFF00000000000079
:103D00008000000000000000000000000006101607
:103D1000000610160000000000000000010203046D
:103D20000607080900000000010203045553415230
:103D300054325F4461746150726F63005553415255
:103D400054335F4461746150726F630064656661EF
:103D5000756C745461736B00783D0008000000209E
:103D6000540100008C030008D43D000854010020D9
:103D7000CC4700004024000801208EA55A0582018E
:103D8000083A01081909590849105A02105A021034
:103D90005A08105A08105A09105A09105A10105A85
:103DA00010105A11105A11105A12105A12105A1398
:103DB000105A13105A14105A14105A15105A15107C
:103DC0005A0410120429AB11196F61035924F41A13
:043DD000AA018100C3
:040000050800018965
:00000001FF
